:100000000200DE021003000000000002100B0000DE
:10001000000000021013000000000002101B00008E
:10002000000000021023000000000002102B00005E
:10003000000000021033000000000002103B00002E
:10004000000000021043000000000002104B0000FE
:10005000000000021053000000000002105B0000CE
:10006000000000021063000000000002106B00009E
:10007000000000021073000000000002107B00006E
:10008000000000021083000000000002108B00003E
:10009000000000020E261200F0B900030200D8E4AE
:1000A00090000278A579018002F0A3D8FCD9FA90DB
:1000B00000A6AA82AB839000F6780979018015E446
:1000C00093A3AC82AD838A828B83F0A3AA82AB8395
:1000D0008C828D83D8E9D9E71203B9120E4575D009
:1000E0000075813F75188075931E5392FE0200962D
:1000F00079015392FE220010000000000200BB01B3
:1001000002E722C0925392FEC082C08389828A8312
:10011000BB0003E08002E493D083D082D09222BB64
:100120000015C0925392FEC082C0838A838982F0F8
:10013000D083D082D09222BB0101F722CAC0E0E670
:10014000F30908DAFAD0E0FA22CAC0E0E0F208A324
:10015000DAFAD0E0FA22600C08C6C313C618C61338
:10016000C6D5E0F422700422600D18C6C333C60859
:10017000C633C6D5E0F41822E4735392FED083D080
:10018000822518F8C518C39824FBCEF208E520F2A2
:1001900008E9C0E07908E709F208DEFAD0E0F9EFF3
:1001A000F208D0E0FED0E0F208EEF208E473A818FE
:1001B000E2FE08E208F520E9C0E07908E208F70964
:1001C000DFFAE208FFD0E0F9E208C0E0E208C0E0B0
:1001D00088185392FE22E584F208E585F222E208AF
:1001E000F584E2F585227403800474028000C9C09E
:1001F000E0E518C399F518C912013CD0E0F9227462
:10020000038000C8C0E0E518C398F518C81201497A
:10021000D0E0F822D083D082C5F0E493A3C5F0C328
:1002200095F0F5F0E493A3C395F04005E5F0048064
:1002300001E475F002A42582F582E5F03583F583AB
:10024000E493A3C0E0E493C0E022D083D082CCC08A
:10025000E0E493A360061202741470FAE493A360BE
:10026000061202931470FAD0E0FCE493A3C0E0E419
:1002700093C0E022C0E0E493A3D39C5010E493A386
:10028000C39C400AD0E0D0E0D0E0020267A3A3A361
:10029000D0E022C0E0E493A36C7009D0E0D0E0D0BD
:1002A000E0020267A3A3D0E0227400F5D375D20A5E
:1002B0005392FE22A2AFE492E0FAC2AF5392FE90B4
:1002C0006270E0A2E740F5E9C333906272F0906299
:1002D00070E0D2E0F0E0A2E740FBEAA2E092AF22B9
:1002E00074FA12017AA2AF92E0F508C2AFED900065
:1002F00002F0EC900003F07462900004F0747390CC
:100300000005F0E4900006F0E9900007F074129008
:100310000008F07442900009F0EB906272F0EA90ED
:100320006271F07400F5D575D40275D601906270D3
:10033000E0D2E1F0E0A2E740FBE508A2E092AF7F67
:10034000010201AEC008C0095392FE906276E054EB
:1003500070643070047A0380027A07E5C7FB8AC7AD
:1003600090FF00E090001AF08BC7A2E05004788064
:1003700080027800E8F5C6E59EF508E8650870019A
:10038000E470F47408906270F0D009D0082274FA16
:1003900012017AF9800C8A828B83E029F9A3AA8260
:1003A000AB83ECFEEDFF74FF2E1C74FF3FFDEE707F
:1003B00001EF70E27F010201AE5392FE900001E076
:1003C00090001BF0120344E5C7FF75C7007C007D59
:1003D000707A007B9012038EE924A5FE8FC77F01FF
:1003E000E5C7F5088FC77C007D807A007B8012030B
:1003F0008EE92EFE8508C70FEFC3940340E2EE702E
:10040000277418559D6410700890001BE0A2E0400E
:10041000177403900001F005929000A6E0F582A306
:10042000E0F5830592120178E4900001F01202A930
:100430001206E612071775C90890001BE0A2E140FA
:100440000675C9A875C95812077680ED74F81201AF
:100450007A15181518A8181201D690620EE0FEE45D
:10046000F0906211E0F50AA2E4501E7480F0740767
:10047000900023F090003FE07002A3E060061206B7
:1004800061120178E4900023F0E50AA2E2500BE447
:10049000906211F0900023F0807A900023E0FA74CB
:1004A000026A705C906216E0FF90003A1201FFEF62
:1004B000F91206488F0890003D120656120670E0A9
:1004C0007002A3E06004744080027448906211F0EE
:1004D00090003DE07002A3E0701590003FE07002D4
:1004E000A3E06006120661120178E4900023F0EEAA
:1004F00090620EF0A8181201DE0518051802074BCD
:1005000074066A7006120661120178900023E0609A
:10051000030205E1E50AA2E050D57508327509002D
:10052000750A0078081201E6790812064890003F23
:10053000E4F0A3F0900032E054E012024A0004001C
:100540004D0520BD05808A05A0CC05B5059000337A
:10055000E012024A0005017B0503760505670509DF
:1005600080050B8505B505120ADE900023E06404C2
:10057000706974608067120AD880EF120AD280EA2C
:10058000120C2880E5120D5A80E0900033E0120230
:100590004A000400A10506A60508AB050AB005B58A
:1005A0000512090680C4120B2C80BF120BF080BA12
:1005B000120CFA80B57404900023F080B590003FCF
:1005C000749EF0A37407F012079E809E90003F7403
:1005D0005BF0A37408F012085B808F744090621186
:1005E000F0900023E0FA74016A704C750A029000E2
:1005F0003DE0F8A3E0F9C3E89420E994005007E84F
:10060000FF750A0A80027F2090003A1201FFEFF97D
:100610007A207B621207380518051805188F081212
:100620000670120656E50A906211F0EFC39420405E
:10063000030204EF0204DA74056A60030204EF1295
:1006400006611201780204EF7A207B62120723050B
:10065000180518051822C3E09508F0A3E09400F0EF
:1006600022059290003FE0F582A3E0F583059222F7
:1006700090003AE0F9A3E0FAA3E0FBE92508F9EAE3
:100680003400FA90003AE9F0A3EAF0A3EBF090000E
:100690003D22C008C0097A008A08E5082424F582B2
:1006A000E43400F583E95392FEF00AEAC39405406E
:1006B000E77A008A08E5082429F582E43400F58306
:1006C000E9F00AEAC3940540EAD009D0082274028E
:1006D0005392FE90001CF0E490001DF0900023F077
:1006E000790312069222C008C00975082175090015
:1006F00078081201EA7C007D007A417B00120E49E5
:1007000005180518740290001CF0740390620FF035
:10071000E0A2E750FB80B253F4FED29043FE0153B7
:1007200092FE2274F812017A12075B6009E012014E
:100730001F12075070F7801374F812017A12075BCA
:1007400060091200FEF012075070F77F030201AE3D
:10075000E9240109EA3400FA1CEC228A828B83E93D
:10076000FCE5182408F8E2F50808E2F50908E2A912
:1007700008AA09FBEC22EEC0E05392FE906206E06C
:10078000FA906202E0FE906204E0EAA2E2500312F4
:1007900006CEEEA2E0500312044CD0E0FE2274F725
:1007A00012017A900033E0120214000156084E083C
:1007B000B207740190001BF0900023E0FA704090A3
:1007C0000038E0F8A3E0F9E87001E97010740290D5
:1007D00000ACF0E4900023F07F040201AE90003AF8
:1007E0007462F0A37400F0A3E4F090003DE8F0A37D
:1007F000E9F07402900023F074039000AC80D87488
:10080000026A7052900034E02440F508A3E03400FE
:10081000F509E508541F701285080A85090B74054F
:10082000780A120156A90A1202B4900038E0240393
:1008300054FCF97C627D0074047808120165AA08F2
:10084000AB091202E0E4900023F0740580AC74025E
:1008500090001B0207D274040207D45392FE90004A
:1008600033E06403701A90003A74A8F0A37400F0A7
:10087000A3E4F090003D7406F0A3E4F0740180025C
:1008800074048000900023F0225392FE9000A2E4B2
:10089000F0A3740FF02274FA12017A15181518A833
:1008A000181201D6EAFDEBFC7A007B000C8032ECDA
:1008B0006047A3E493FEED6E603BE96E700B05921A
:1008C0009000A2E0FAA3E0FB1CEFFE5392FE900022
:1008D000A2E02EFEA3E03400FF9000A2EEF0A3EF12
:1008E000F09000A2E0F584A3E0F585E4059293FF83
:1008F00070BDEC60047A007B00181201DE0518055B
:10090000187F010201AEC0085392FE900034E070DF
:1009100002A3E0701E900036E0F8A3E0F974FF59DE
:10092000FBE47001EB700C900038E064027002A3ED
:10093000E0600474048058900032E01202148002D7
:10094000330948099609A609E870E890002FE0608D
:10095000047801800278009000A4E8F0A3E4F0900D
:10096000002EE0600A9000A4E04402F0A3E4F090BE
:100970000023E06404601C90003A74A4F0A37400A7
:10098000F0A3E4F090003D7402F0A3E4F074019051
:100990000023F0D0082290001CE0640470959000C1
:1009A000A4E4F0A380C8E8547FF50890001CE0643C
:1009B000047080E508C394064003020933E5082467
:1009C0001CF582E43400F583E854806018A3A3A3E7
:1009D000A3A3A3A3E06403700478018002780090CD
:1009E00000A4E88086E582240CF582E5833400F5D6
:1009F00083E0640370E780E174F912017A15181539
:100A000018A8181201D6E9FA900038E07002A3E0A5
:100A1000701290001CE064046016900036E07002D2
:100A2000A3E0600C7404900023F0790118020DFB20
:100A3000900032E0541F1202140002240A430A4BB1
:100A40000A550A900034E064016004790080DDEA10
:100A500090002E80D4900036E0547FF5089000344A
:100A6000E070E8E508C3940650BAE50890620EF01D
:100A7000241CF584E43400F585900036E054806051
:100A800021EA6004741080027440906211F0EA6000
:100A90000474038001E40592A3A3A3A3A3A3A3F07A
:100AA0008026EA6004742080027480906214F0EA68
:100AB000600474038001E4C0E0E584240CF582E561
:100AC000853400F583D0E0F0E45392FE90620E028C
:100AD0000A2979001209F82279011209F8225392A1
:100AE000FE900036E07002A3E07020900038E070C5
:100AF00002A3E07016900034E0F8A3E0F974805887
:100B0000FA74FF59FBEA7001EB60057404020C23D0
:100B1000E8906200F090001C6009E06402700C74C0
:100B200003F022E0640370037402F02274F81201EF
:100B30007A120889900034E0FAA3E0F91202140155
:100B4000027F0B490B510B770B7B007A00790180F8
:100B500032EAFB7A007902120BD8E924020909EA89
:100B60003400FA89828A83E493F8740193F990003F
:100B70003DE8F0A3E9801AEAFB7A00790380047B60
:100B8000007A00120BD87B801200FE90003DF0A38B
:100B9000E4F090003AE0FCA3E0FDA3E0FEEC4D4E53
:100BA000700474048029900023E0640460259000A0
:100BB00038E0FAA3E0FB90003DE0F8A3E0F9C3EAD7
:100BC00098EB99500890003DEAF0A3EBF074019087
:100BD0000023F07F030201AE12089690003AEAF07B
:100BE000A3EBF0A37480F090003AE0F9A3E0FA22BE
:100BF0005392FE900034E07002A3E070169000362D
:100C0000E07002A3E0700C900038E064017002A371
:100C1000E060047404800C90003A741DF0A374002A
:100C2000120D4A900023F02274F812017A90001CF1
:100C3000E06402601F900036E07002A3E07015903F
:100C40000038E07002A3E0700B900035E0F9E4702A
:100C500001E960097404900023F0020CEB1208898A
:100C6000900034E060777B007A0079021208968A5F
:100C7000088B09AE08AF09EE7001EF60D790003421
:100C8000E0F88E828F83A3A3A3A3A3E493C0E0E83C
:100C9000FAD0E06A70D0740490001CF0E890001D57
:100CA000F0750A008E828F83A3A3A3A3E493FAE5D1
:100CB0000AC39A5036850A08E508241EF582E434F2
:100CC00000F583E4F07B007A00120CEE7002E583FD
:100CD0006007A3A3A3E49370EC050A80C790001DEE
:100CE000F0740390001CF0F9120692020BD3790401
:100CF0001208968A828B83E5822274F812017A9018
:100D0000001CE06404701E900032E0648170169054
:100D10000034E07002A3E0700C900038E0640170D1
:100D200002A3E060047404801A900036E0241EF5EB
:100D300008A3E03400F50990003AE508F0A3E509BE
:100D4000120D4A900023F0020BD3F0A3E4F09000C0
:100D50003D7401F0A3E4F074012274F912017A15D4
:100D6000181518A8181201D690001CE0640470121F
:100D7000900032E06401700A900038E07002A3E055
:100D800060077404900023806F1208897B007A004A
:100D90007902120CF07002E583600FA3A3A3A3A352
:100DA000E493FA90001DE06A70E27B007A02120C74
:100DB000EE7002E58360CB0592900034E0F8A3E08A
:100DC000F9900036E0FAA3E0FB858284858385A351
:100DD000A3E493FCEA6C7001EB600F0592A3A3A35C
:100DE000E493FCE86C7001E970C0EA241EF582EB24
:100DF0003400F583E85392FEF0A8181201DE0518BE
:100E000005187F020201AE15188A828B83E9C0E0C3
:100E1000A818D0E0F25392FEE0C0E0A818D0E0F2AB
:100E200005185392FE2274FA12017A15181518EA61
:100E3000FEEBFFA818EEF208EFF2AA18AB937901C7
:100E4000120E0780EE1200932274FA12017AE5184E
:100E50002406F8E2FE08E2FF8A828B83800BECF026
:100E6000A3EE24FF1EEF34FFFFEE7001EF70EF7F63
:100E7000010201AEFFFFFFFFFFFFFFFFFFFFFFFFCC
:100E8000FFFFFFFFFFFFFFFFFFFFFFFFFFFFFFFF72
:100E9000FFFFFFFFFFFFFFFFFFFFFFFFFFFFFFFF62
:100EA000FFFFFFFFFFFFFFFFFFFFFFFFFFFFFFFF52
:100EB000FFFFFFFFFFFFFFFFFFFFFFFFFFFFFFFF42
:100EC000FFFFFFFFFFFFFFFFFFFFFFFFFFFFFFFF32
:100ED000FFFFFFFFFFFFFFFFFFFFFFFFFFFFFFFF22
:100EE000FFFFFFFFFFFFFFFFFFFFFFFFFFFFFFFF12
:100EF000FFFFFFFFFFFFFFFFFFFFFFFFFFFFFFFF02
:100F000012010002000000205824FEFF0000010230
:100F1000030109021B0001010480250904000000EF
:100F2000FE01020409210D03E84000010104030948
:100F300004120342006C00750065006700690067D9
:100F400000610016034C006F007700200045006E22
:100F50000065007200670079000A03310032003337
:100F6000003400080344004600550000FFFFFFFF67
:100F7000FFFFFFFFFFFFFFFFFFFFFFFFFFFFFFFF81
:100F8000FFFFFFFFFFFFFFFFFFFFFFFFFFFFFFFF71
:100F9000FFFFFFFFFFFFFFFFFFFFFFFFFFFFFFFF61
:100FA000FFFFFFFFFFFFFFFFFFFFFFFFFFFFFFFF51
:100FB000FFFFFFFFFFFFFFFFFFFFFFFFFFFFFFFF41
:100FC000FFFFFFFFFFFFFFFFFFFFFFFFFFFFFFFF31
:100FD000FFFFFFFFFFFFFFFFFFFFFFFFFFFFFFFF21
:100FE000FFFFFFFFFFFFFFFFFFFFFFFFFFFFFFFF11
:100FF000FFFFFFFFFFFFFFFFFFFFFFFFFFFFFFFF01
:101000000210F7023583FFFFFFFFFF022DB5FFFF40
:10101000FFFFFF023DBEFFFFFFFFFF023E75FFFF28
:10102000FFFFFF022CD0FFFFFFFFFF023CF6FFFF98
:10103000FFFFFF023F30FFFFFFFFFF023E19FFFFF0
:10104000FFFFFFFFFFFFFFFFFFFFFFFFFFFFFFFFB0
:10105000FFFFFFFFFFFFFFFFFFFFFFFFFFFFFFFFA0
:10106000FFFFFFFFFFFFFFFFFFFFFF022D4FFFFF0F
:10107000FFFFFF023EDAFFFFFFFFFF022D7BFFFFB6
:10108000FFFFFF0235877582B07583BD74021211B0
:101090000C12112DB900030210E1E479337802B883
:1010A00000028004F709D8FCE490030278DC790997
:1010B0008002F0A3D8FCD9FA900BDDAA82AB839012
:1010C00011337843790A8015E493A3AC82AD838A07
:1010D000828B83F0A3AA82AB838C828D83D8E9D9DB
:1010E000E77582697583B9740212110C7582FF75F8
:1010F00083BD740212110C75D00075813F753102E9
:10110000753203759F005392FE021091C09FF59FA8
:10111000E473D09F225392FED083D082C09FE49389
:10112000C0E0740193C0E0740293F59F22790153EB
:1011300092FE220001000002000000DD1B00000002
:101140000100000000071C00000002000000001960
:101150001C0003000324000000FB1B000200040429
:10116000000000011C00000005000000003D1C0004
:1011700000000600000000A31C0005000726000078
:1011800000551C0000000800000000D91C000200EF
:101190000982000000371C0007000A2A000000DF57
:1011A0001C0007000B2A000000E51C0000000C00DA
:1011B000000000EB1C00000100000000004F1C00BC
:1011C00000010100000000CD1C0000010200000031
:1011D00000431C0003010384000000611C000201A5
:1011E00004040000005B1C0002010504000000492B
:1011F0001C00010106020000000D1C000301078411
:10120000000000131C0004020024080000AF1C00B2
:1012100004020144000000951B00020202040000C9
:10122000009B1B00030203220800008F1B00010328
:1012300000020000007D1B0001030102000000D33A
:101240001C0009030242440400771B00010303024F
:10125000000000F51B0001030402000000E31B0076
:1012600002030582000000E91B00010306020000E2
:1012700000EF1B0001030702000000711B000203C6
:1012800008820000004D1B0008040042440800834F
:101290001B0006040142840000A11B000604024258
:1012A000840000AD1B0005040342040000A71B00DE
:1012B00003040442000000B31B00040405420800BC
:1012C00000BF1B0004040642080000D71B000004F6
:1012D0000700000000891B0003040842000000B959
:1012E0001B0006040942840000C51B0002040A22F8
:1012F000000000CB1B0002040B82000000D11B0089
:1013000002050022000000311C000105010200005E
:1013100000B51C0001050202000000C11C0003050D
:101320000322020000BB1C0005050462000000C788
:101330001C00000505000000009D1C0001050608BA
:101340000000006D1C0002060022000000671C0067
:1013500002060122000000791C00010602020000C2
:10136000007F1C000F06032A444400911C00000665
:101370000400000000971C00080605444400008596
:101380001C00030606220200008B1C000506074411
:10139000020000251C00050608440200002B1C006A
:1013A000020609820000001F1C0007060A2A00002E
:1013B00000731C0003070022020000031D00060743
:1013C00001260200000F1D0003070222020000098F
:1013D0001D0002070322000000151D000207042261
:1013E0000000001B1D0003070522020000211D0054
:1013F00003070622020000271D0002070722000043
:10140000002D1D00060708222222003F1D000207B2
:101410000982000000451D0002070A220000003377
:101420001D0002070B82000000391D0001070C029D
:10143000000000A91C0003080022020000531B004A
:1014400001080102000000591B0000080200000012
:10145000005F1B0000080300000000651B0000087F
:1014600004000000006B1B0000000000000000F101
:101470001C0000000100000000F11C000600020A30
:10148000000000F11C0002000304000000F11C0039
:1014900003000424000000F11C00040005222200C7
:1014A00000F11C0001000602000000F11C00050014
:1014B0000786000000F11C000C000844442402F1DF
:1014C0001C0000000900000000F11C0002000A04DA
:1014D000000000F11C0002000B04000000F11C00E1
:1014E00000000C00000000F11C00000100000000E2
:1014F00000F11C0000010100000000F11C000001CF
:101500000200000000F11C0002010304000000F1D1
:101510001C0003010484000000F11C000001050010
:10152000000000F11C0002010604000000F11C0094
:1015300000010700000000F11C000202000400008E
:1015400000F11C0007020144840000F11C000502A8
:101550000244080000F11C0000020300000000F13A
:101560001C0003030042000000F11C0002030132D2
:10157000000000F11C0003030242000000F11C0007
:1015800003030342000000F11C0002030482000078
:1015900000F11C0003030542000000F11C000303DE
:1015A0000642000000F11C0001030702000000F1E8
:1015B0001C0001030802000000F11C0003040042AB
:1015C000000000F11C0003040142000000F11C00B7
:1015D00003040242000000F11C0003040342000067
:1015E00000F11C0003040442000000F11C0003048D
:1015F0000542000000F11C0003040642000000F157
:101600001C0000040700000000F11C000304084255
:10161000000000F11C0003040942000000F11C005E
:1016200003040A42000000F11C0003040B42000006
:1016300000F11C0003050042000000F11C00000541
:101640000100000000F11C0002050204000000F18E
:101650001C0000050300000000F11C00020504044A
:10166000000000F11C0001050502000000F11C0053
:1016700000050600000000F11C000006000000004C
:1016800000F11C0002060104000000F11C0002062B
:101690000204000000F11C0003060324000000F116
:1016A0001C0002060404000000F11C0003060524CF
:1016B000000000F11C0002060604000000F11C00FE
:1016C00002060704000000F11C00020608040000E6
:1016D00000F11C0002060904000000F11C000206D3
:1016E0000A04000000F11C0002070004000000F1E1
:1016F0001C0002070104000000F11C0002070204A4
:10170000000000F11C0002070304000000F11C00AF
:1017100002070404000000F11C0002070504000099
:1017200000F11C0002070604000000F11C00040781
:101730000724020000F11C0002070804000000F169
:101740001C0004070924080000F11C0003070A8498
:10175000000000F11C0001070B02000000F11C005A
:1017600000070C00000000F11C0000080000000051
:1017700000F11C0000080100000000F11C0002083C
:101780000204000000F11C0000080300000000F14A
:101790001C0001080408000000F11C800C0000443B
:1017A000442402F11C8001000108000000F11C80AB
:1017B00002000282000000F11C800301008400008E
:1017C00000F11C8007020022440800F11C80050281
:1017D0000142040000F11C80100300222A4424F17D
:1017E0001C8006030122440000F11C8002030282D7
:1017F000000000F11C8002030382000000F11C8045
:1018000003030442000000F11C80030400420000B6
:1018100000F11C8005040142040000F11C80060454
:101820000242840000F11C8007040342240800F1F6
:101830001C8004040442080000F11C8005040542D9
:10184000820000F11C8002040682000000F11C806E
:1018500003050022080000F11C800305014200007E
:1018600000F11C8005050262000000F11C800105EA
:101870000302000000F11C8004050422220000F194
:101880001C800B0600232A8200F11C800206012224
:10189000000000F11C8007070026220000F11C80D8
:1018A00001070102000000F11C8003070252000042
:1018B00000F11C00000000000000000000DD0BE74C
:1018C0000BF10BFB0B050C0F0C190C230C2D0C371B
:1018D0000C410C4B0C550C5F0C690C730C7D0C8788
:1018E0000C910C9B0CA50CAF0CB90CC30CCD0CD7F8
:1018F0000CE10CEB0CF50CFF0C090D130D1D0D2765
:101900000D310D3B0D450D4F0D590D630D6D0D77CF
:101910000D810D8B0D950D9F0DA90DB30DBD0DC73F
:101920000DD10DDB0DE50DEF0DF90D030E0D0E17AD
:101930000E210E2B0E350E3F0E490E530E5D0E6717
:101940000E710E7B0E850E8F0E990EA30EAD0EB787
:101950000EC10ECB0ED50EDF0EE90EF30EFD0E07F7
:101960000F67130D811308911304991309AB130C1E
:10197000C31307D1130BE7130D011405000000007A
:101980004B1D511D571D5D1D631D691DF71CDB237C
:101990002B226B240B2411240300000200002F1EB5
:1019A0000102070000911F3EFE0E00F401FA0096AE
:1019B0000064004B0032001E001400D6BE898E0069
:1019C0000106021213151429417671FFC1FBE84C80
:1019D00090728BE7B3518963AB232302841872AAF8
:1019E000612F3B51A8E53749FBC9CA0C18532CFDA0
:1019F00045E3010000000400000000400000FFFF7C
:101A0000FF00FFFFFFFFFFFFFFFF03000000FAFFE3
:101A1000FFFF0000800062000000070000000500DA
:101A200006000700000001000100000100010202A1
:101A30000300020000000000020201000240420F09
:101A40000019000000093D0000EAFFFFFF112159C5
:101A500024ED1DF12217242F1EE123A91F000000F1
:101A600080C0000000FB349B5F80000080001000FD
:101A70000000000000121115FC77001211151478F7
:101A8000001211154F7800121115BA7800121115B5
:101A9000C77800121115EB78001211151579001294
:101AA0001115337900121115AA7900121115CF7989
:101AB000001211152C7A00121115C57E0012111595
:101AC000A27F001211158BEA0112111521EB0112F0
:101AD000111556EB011211156BEB01121115E3EB09
:101AE00001121115FDEB0112111531EC0112111546
:101AF0004DEC01121115AEEC0112111519ED011288
:101B000011153CED0112111566ED01121115C9ED0B
:101B100001121115F8ED0112111513EE0112111534
:101B200044EE0112111579EE011211151CEF01128C
:101B3000111522EF0112111537EF0112111519BD00
:101B4000021211156BB1021211157EB1021211159C
:101B500021C901121115DCC901121115F4C90112B4
:101B6000111503CA0112111519CA0112111525CA3E
:101B7000011211155ACA011211159DCA011211152F
:101B8000F2CA0112111523CB011211159BCB0112C0
:101B90001115A4CB01121115AACB011211153ACCC3
:101BA00001121115AECC01121115FECC0112111546
:101BB00028CD011211158CCD01121115BBCD0112CA
:101BC0001115E8CD011211152CCE011211156DCE93
:101BD00001121115A5CE01121115E6CE0112111533
:101BE0002FCF0112111544CF0112111573CF01121D
:101BF0001115CACF0112111502D0011211153AD0D8
:101C00000112111572D0011211159AD0011211157D
:101C1000A3D001121115C1D001121115D9D0011292
:101C2000111502D10112111543D1011211156FD1F5
:101C300001121115B5D10112111532D2011211156F
:101C400087D201121115C4D201121115CFD201127F
:101C50001115EAD201121115FDD201121115A5D3E9
:101C6000011211152FD4011211157DD40112111575
:101C7000A7D401121115BBD401121115DDD4011224
:101C8000111501D5011211151DD50112111593D58C
:101C900001121115D4D5011211154FD601121115CB
:101CA00065D6011211158CD601121115AED601128E
:101CB0001115C7D60112111520D7011211152FD7F2
:101CC000011211155AD70112111586D701121115DB
:101CD000B8D701121115C7D70112111507D8011273
:101CE00011157FD801121115ADD801121115DBD8CD
:101CF00001121115E7D801121115EAD801121115B8
:101D0000D3D90112111551DA01121115A5DA0112F8
:101D10001115DCDA011211152FDB0112111586DB0A
:101D200001121115DDDB011211155EDC0112111516
:101D3000EADC011211155BDD01121115C8DD01127B
:101D400011150BDE01121115F4DE0112111518A97F
:101D50000212111538A90212111557A902121115F4
:101D600076A90212111595A902121115B4A9021231
:101D70001115E5A902121115EEAA0212111516ABE2
:101D8000021211153DAB02121115B3AB021211155F
:101D90008689021211158C8902121115B989021255
:101DA0001115BB8902121115FB8902121115178A30
:101DB000021211157C8A02121115A88A021211153D
:101DC000E08A021211155C8B02121115BB8B0212F4
:101DD0001115D88B021211150E8C02121115928C4E
:101DE000021211155B8D02121115B98D0212111517
:101DF000F08D02121115888E021211157A8F0212BF
:101E00001115898F02121115DABD02121115E7BDE5
:101E100002121115A1BB02121115CEBB021211152F
:101E20000080021211154E800212111565800212F7
:101E30001115858002121115D180021211152E8103
:101E4000021211159782021211155C8302121115EC
:101E5000D98302121115EB8302121115408402126C
:101E60001115E984021211153C85021211158B859A
:101E7000021211157F86021211158E87021211159A
:101E800016880212111500800112111569800112C5
:101E90001115B581011211153282011211155982E5
:101EA00001121115BC82011211154D830112111579
:101EB0002A8401121115FC8401121115C985011221
:101EC0001115BE8601121115248701121115A6875E
:101ED000011211152D880112111582880112111598
:101EE000178901121115608901121115B1890112AA
:101EF00011150D8A01121115B48A01121115358BB5
:101F0000011211150F8C01121115968D0112111568
:101F1000AC8F01121115E38F011211154C900112B3
:101F20001115889001121115EF9001121115FE91F3
:101F300001121115A592011211152B930112111501
:101F40003F9401121115A5940112111593950112D8
:101F500011159696011211159397011211153C98BF
:101F600001121115109A011211158E9C01121115F2
:101F7000139D01121115989D01121115F5A0011262
:101F8000111566A30112111531A401121115E9A54D
:101F90000112111503A70112111534A00212111517
:101FA0000CA10212111545A1021211157BA10212FA
:101FB00011155AA202121115ECA20212111543A317
:101FC000021211159EA302121115BFA302121115C0
:101FD000E0A302121115F6A30212111513A40212A6
:101FE00011155BA4021211159EA402121115E2A490
:101FF000021211154BAC021211158CAC0212111504
:10200000F0AC021211151AAD02121115F1AD021247
:102010001115DEAE0212111574B802121115A7B80F
:1020200002121115F1B8021211159E4D0012111570
:10203000BC4D00121115D44D00121115EC4D0012BB
:1020400011150C4E00121115BE4E001211150B4F3A
:1020500000121115654F001211158C4F0012111549
:10206000C74F00121115FA4F001211153750001208
:102070001115A050001211153E51001211154C51AE
:1020800000121115A0530012111531540012111530
:1020900081540012111558550012111535560012B1
:1020A00011156D56001211159E5600121115C856C5
:1020B00000121115955800121115CD580012111566
:1020C000FA5800121115655E00121115D45E001247
:1020D0001115245F00121115FC5F00121115086123
:1020E00000121115D8630012111549640012111560
:1020F000BA64001211152366001211159A660012B7
:102100001115016700121115606700121115A867FB
:10211000001211153D6800121115556900121115B4
:10212000C86900121115A16A00121115296B00125D
:102130001115BE6C00121115E76C001211150C6F11
:1021400000121115177000121115A470001211154C
:10215000EB7000121115B07200121115C17200124D
:1021600011151373001211153674001211159B749A
:1021700000121115CE7400121115387500121115C8
:10218000BC75001211151D76001211155E76001235
:102190001115687600121115977600121115157732
:1021A000001211154EB70212111598B7021211152F
:1021B000D9B70212111517B80212111533BC021249
:1021C0001115B6DF01121115E7DF0112111533E009
:1021D0000112111580E001121115FBE00112111519
:1021E000ECE201121115D2E301121115FAE5011208
:1021F000111504E701121115F1E701121115F9E8A3
:102200000112111572E90112111572EA011211156C
:1022100051F40112111586F401121115BFF40112C7
:1022200011153BF50112111594F501121115C3FC9E
:102230000112111526AF0212111557AF0212111516
:1022400007B002121115BDB00212111511A801122A
:1022500011152EA8011211155FA801121115B9A8A8
:1022600001121115E6A8011211151AA90112111572
:102270006CA9011211159EA901121115F3A90112E1
:1022800011154FAA0112111501AB0112111571ABF5
:10229000011211154DAD01121115D8AD0112111514
:1022A0007BB00112111576B401121115B9B40112E7
:1022B000111519B501121115C3B50112111582B707
:1022C0000112111529B80112111578B80112111552
:1022D000B7B8011211151EB9011211154EB901122C
:1022E0001115A0B90112111513BB011211155ABC19
:1022F000011211156BBC01121115B6BD0112111599
:10230000CCBD011211150CBE01121115CDBE01126A
:102310001115E2BE011211150FBF0112111570C087
:102320000112111513C10112111546C10112111527
:102330008DC10112111536C2011211159BC2011275
:102340001115B0C30112111522C40112111564C474
:102350000112111578C501121115F7C701121115D7
:102360007CC80112111503FE0112111510FE011295
:10237000111533FE0112111571FF011211157EFFA7
:1023800001121115ADFF01121115319B0212111529
:10239000969B02121115C69B02121115169C021271
:1023A0001115E49C02121115509E02121115B49ED3
:1023B00002121115C29E02121115D69F021211159A
:1023C000F69F02121115A1B3021211151EB40212CA
:1023D000111542B4021211159DB402121115FFB469
:1023E0000212111580B50212111592B502121115C3
:1023F00035A502121115C9A50212111536A6021231
:1024000011157BA702121115C4A7021211151FA8DE
:102410000212111598A80212111508A9021211151D
:102420000896021211156D9802121115A598021244
:102430001115C398021211150299021211151C9957
:10244000021211155B9902121115839902121115CE
:10245000B69902121115FD99021211151D9A021258
:1024600011159E9A02121115CE9A02121115E99AAF
:1024700002121115A0B50212111502B602121115A1
:1024800064B60212111566B6021211157CB602125C
:102490001115D1B6021211150EBB021211152CBB6B
:1024A0000212111516900212111503910212111544
:1024B000E99102121115F19102121115F99102120E
:1024C00011155C9202121115059302121115069452
:1024D00002121115449402121115109502121115D1
:1024E0006E95021211154ABA02121115DABA0212C9
:1024F00011156ABD02121115861000121115A8BC23
:1025000002121115B4FF01121115C67F00E76670A3
:10251000100809E766700A0809E76670040809E709
:102520006622E066701008A3E066700A08A3E06601
:10253000700408A3E06622C3E7960809E796080935
:10254000E7960809E796A2D265D03322C3E796083A
:1025500009E7960809E7960809E79622BB0102E712
:1025600022C0925392FEC082C08389828A83BB00BC
:1025700003E08002E493D083D082D09222BB001586
:10258000C0925392FEC082C0838A838982F0D08336
:10259000D082D09222BB0101F722080808EAC0E0ED
:1025A000EBC0E086F0E7A4FA180986F0E7A42AFA5F
:1025B000180986F0E7A42AFA180986F0E7A42AFA8F
:1025C0001986F0E7A4FBE5F02AFA190886F0E7A4DB
:1025D0002BFBE5F03AFA190886F0E7A42BFBE5F0AF
:1025E0003AFA18180986F0E7A4C5F02BFBE43AFA8A
:1025F0001908E7C5F0C6A426F6E5F03BFBE43AFA75
:102600001886F0E7A4F6E5F00826F6E43B08F6E4C1
:102610003A08F6D0E0FBD0E0FA22E4CFC0E0E4CE06
:10262000C0E0E4CDC0E0E4CCC0E075F020C3E63308
:10263000F608E633F608E633F608E633F618181817
:10264000EC33FCED33FDEE33FEEF33FFC3EC9709C3
:10265000ED9709EE9709EF97191919400FFFEC97BD
:10266000FC09ED97FD09EE97FE191906D5F0BEECB1
:10267000F709EDF709EEF709EFF7191919D0E0FCA2
:10268000D0E0FDD0E0FED0E0FF221226F2181818AC
:1026900012261A1226E1191919221226E1191919FE
:1026A000080808E618181820E7E012261A1226F281
:1026B00018181822090909E719191920E7DC080870
:1026C00008E618181820E70302261A1226F218182E
:1026D0001812261A1226F21818181226E1191919BA
:1026E00022E4C397F709E497F709E497F709E49719
:1026F000F722E4C396F608E496F608E496F608E4B2
:1027000096F6226017080808C6A2E713C618C61373
:10271000C618C613C618C613C6D5E0E92260160847
:102720000808C6C313C618C613C618C613C618C6EB
:1027300013C6D5E0EA2270090808082260161818A6
:1027400018C6C333C608C633C608C633C608C63360
:10275000C6D5E0EA22E627F60809E637F60809E6D4
:1027600037F60809E637F622E026F608A3E036F643
:1027700008A3E036F608A3E036F622E026F008A328
:10278000E036F008A3E036F008A3E036F022C3E616
:1027900097F60809E697F60809E697F60809E69716
:1027A000F622C3E0C696F608A3E0C696F608A3E0B4
:1027B000C696F608A3E0C696F622E657F60809E69E
:1027C00057F60809E657F60809E657F622E056F6E6
:1027D00008A3E056F608A3E056F608A3E056F62252
:1027E000E647F60809E647F60809E647F60809E667
:1027F00047F622E667F60809E667F60809E667F68F
:102800000809E667F622E0F608A3E0F608A3E0F67A
:1028100008A3E0F622E6F008A3E6F008A3E6F00835
:10282000A3E6F022CAC0E0E6F0A308DAFAD0E0FAA4
:1028300022CAC0E0E0A30592F0A30592DAF6D0E048
:10284000CA22C3E498F8E499F91228838026C3E4E5
:102850009AFAE49BFBE920E7E9122883E498F8E47C
:1028600099F922C3E498F8E499F9122883E498F8D6
:10287000E499F9C3E49AFAE49BFB22EB20E7CFE961
:1028800020E7E0B90010BB0008E88AF084F8AAF05D
:1028900022E4FBC8FA22EB70227B10C833C8C9338C
:1028A000C9335007C39AC3DBF280069A50012ADB72
:1028B000EAC833F4C8C933F4C9FA2275F008E4C889
:1028C00033C8C933C933C99AC99B5004C92AC93B03
:1028D000D5F0ECFBC833F4C8E4C9FA22600D08C691
:1028E000A2E713C618C613C6D5E0F322600C08C6CB
:1028F000C313C618C613C6D5E0F422700422600DB7
:1029000018C6C333C608C633C6D5E0F4182225312D
:1029100010AF08F531400215328008F5314002153C
:1029200032D2AF22C0D0253110AF08F531500205A8
:10293000328008F53150020532D2AFD0D022253195
:10294000F58210AF08F531400215328008F53140AC
:10295000021532D2AF85328322C5822531C582C5A8
:1029600083353210AF07F5328582318007F5328525
:102970008231D2AFC583222531F582E43532F58329
:10298000222531F584E43532F58522E473C0E0E890
:10299000C0E0E58124FCF8E6A2E7D0E0F8D0E02230
:1029A0005392FE2531C582C0E0E53234FFC583C0B5
:1029B000E0E531C3958224F8F8E4C5A88583328523
:1029C0008231C5A8E8CEF0A3E520F0A37821E6087F
:1029D000F0A3DEFAEFF0A3E58124FAF8E608F0A30D
:1029E000E608F0A3E608F0A30808E608F0A3E60866
:1029F000F0A315811581D0E0FED0E0F81581158196
:102A00001581E8C0E0EEC0E0225392FE2531C58278
:102A1000C0E0E53234FFC583C0E0E531C3958224D0
:102A2000F9F8E4C5A8858332858231C5A8E8CEF0DF
:102A3000A3E520F0A37821E608F0A3DEFAEFF0A3E7
:102A4000E58124FBF8E608F0A3E608F0A30808E611
:102A500008F0A3E608F0A315811581D0E0FED0E0D0
:102A6000F815811581E8C0E0EEC0E0225392FE85A2
:102A70003283853182E0A3FEE0A3F5207821E0A334
:102A8000F608DFFAE0A3FFE0A3C0E0E0A3C0E0E0C7
:102A9000A3C0E0E0A3C0E0E0A3C0E0E4C5A8858255
:102AA00031858332C5A8D083D0825392FE021112A1
:102AB0005392FE853283853182E0A3FEE0A3F520A8
:102AC0007821E0A3F608DFFAE0A3FFE0A3C0E0E08E
:102AD000A3C0E0E0A3C0E0E0A3C0E0E4C5A8858215
:102AE00031858332C5A8D083D0825392FE22C09212
:102AF0005392FEC0D02531C582C0E0E53234FFC517
:102B000083C0E0E531C3958224F210AF088583329B
:102B10008582318008858332858231D2AFC8F0A3A7
:102B2000E9F0A3EAF0A3EBF0A37921E709F0A3D839
:102B3000FAECF0A3EDF0A3EEF0A3EFF0A3D0E0F0F9
:102B4000A3D0E0F0A3D0E0F0A3E520F0A3E5F0F0FF
:102B5000A3D0E0F0225392FE853283853182E0C01B
:102B6000E0A3E0F9A3E0FAA3E0FBA37821E0F608F4
:102B7000A3DFFAE0FCA3E0FDA3E0FEA3E0FFA3E0F7
:102B8000C0E0A3E0C0E0A3E0F5D0A3E0F520A3E01F
:102B9000A3F5F0E0A3C0E0E4C5A8858332858231C7
:102BA000C5A8D0E0D082D083F592D0E0F8D0E03252
:102BB000E584F0A3E585F022E0A3F584E0F5852225
:102BC00074048006740280027401C0E0F4041229C7
:102BD0003ED0E0122824227404800A740380067414
:102BE0000280027401C0E0F40412293ED0E01228F1
:102BF0003122D083D082C5F0E493A3C5F0C395F011
:102C0000F5F0E493A3C395F04005E5F0048001E4FA
:102C100075F002A42582F582E5F03583F583E4930F
:102C2000A3C0E0E493C0E022D083D082E9C0E0E416
:102C300093A3C386F0C5F095F0F908E493A386F05A
:102C4000C5F095F0700BE493A3C3994005E90480A7
:102C500002A3E475F002A42582F582E5F03583F540
:102C600083D0E0F9E493A3C0E0E493C0E022D083F2
:102C7000D082CCC0E0E493A36006122C981470FAC2
:102C8000E493A36006122CB71470FAD0E0FCE4932E
:102C9000A3C0E0E493C0E022C0E0E493A3D39C503F
:102CA00010E493A3C39C400AD0E0D0E0D0E0022C13
:102CB0008BA3A3A3D0E022C0E0E493A36C7009D05F
:102CC000E0D0E0D0E0022C8BA3A3D0E022FFFFFFF6
:102CD000C0E074F1122AEE759800E5A8FAC2AF9030
:102CE00009A5E0D2E2F0753300EAA2E792AF121A2A
:102CF000B17F01022B5574F5122A0974FC12290EBA
:102D0000E5A8FAC2AFE595853182853283F0E59674
:102D1000C0E07401122977D0E0F0E597C0E07402BA
:102D2000122977D0E0F0EAA2E792AF740312297774
:102D3000E4F08531828532837821122806AA21ABFE
:102D400022AC23AD2474041229247F04022AB0C0CB
:102D5000E074EE122AEE122DA4122815E5899004D3
:102D6000BCF0E5809004BFF07B007A007907122365
:102D7000AB758900C2C57F04022B55C0E074EE120A
:102D80002AEE122DA4122815E58A9004BDF0E590D4
:102D90009004C0F07B017A0079071223AB758A009A
:102DA000C2EB80D2122CF68A218B228C238D2490A8
:102DB00004B8782122C0E074F0122AEEE49061A9F0
:102DC000F0E5BBF9E5BAFAE9FB9004C6E0C333F8D5
:102DD000E433F9E824C7F582E93404F583EAF0A383
:102DE000EBF09004C6E02410FB7A0079071223ABC5
:102DF000E5A8FAC2AF9009A5E0C2E1F0753300EA98
:102E0000A2E792AF7F02022B55C082C0835392FE8D
:102E1000906059E0FA900662E02AF0906058E0FA7B
:102E2000900663E02AF090605A122E3F90605E1286
:102E30002E3F90605CE0FA900665E02A023A35E0A9
:102E4000FA900664E02AF022C082C083E45392FE26
:102E5000900662F0900663F0900664F090066502BA
:102E60003A3574F7122A09E9122C6E010203922EE8
:102E70000100762EB72E9004E7E054086009900414
:102E8000E9E0603314802FE054FBFAA3E0FB740800
:102E9000801D9004E7E05404600C9004E9E06408AD
:102EA0006015E0048010E054F7FAA3E0FB74044AD4
:102EB0009004E7F0A3EBF09004ECE0FAA3E0FB90C1
:102EC00004EEE02AF0A3E03BF090618FE0C0E090D8
:102ED00004E9E0FA7408C39AF8D0E0B8000280046C
:102EE000C313D8FCF52174FF6521700A90600AE4D1
:102EF000F0A37401801074012521FAE43400FB90E2
:102F0000600AEAF0A3EBF002375A74F7122A09E9D3
:102F1000FE74046E70051220ED80429004F9E064A6
:102F2000019004F26007E0A2E040328013E054FE1A
:102F3000F0A3E0F07B09900620E0FA79001223ABC1
:102F40009004F6E0F974FF69601312217774FF9022
:102F500004F6F090064EE054FEF0A3E0F079001283
:102F600023638A218B22A821A9229004F4E028FA65
:102F7000A3E039FB90618FE0F8741F582AF8E43B16
:102F8000F99004F71234E402375A74F7122A0974DC
:102F9000FE12293E122BB0900620E0F52175F0E0DC
:102FA000A42440FAE5F03405FB8A828B83A3A3A313
:102FB000A3A3A3A3A3A3AC82AD8390605CE0600B4A
:102FC0008C828D83E04420F0A3E0F0EA2428FEEB1D
:102FD0003400FFEA242AF8EB3400F988828983055B
:102FE0009290605AE0700690605EE060318C848D53
:102FF00085E04420F0A3E0F0E40592F0A3F0EA2499
:103000001AF582EB123079740378211228FB8E8234
:103010008F83E521F0A3E522F07900023749EA2405
:1030200016F584EB3400F585E0F8A3E0F985828499
:10303000858385E028F0A3E039F08E848F850592A2
:103040001234EDC30592E098A3E09950CC8A828BAC
:10305000830592A38582848583858C828D83E05449
:1030600020600474088002743E0592F07B02AA215D
:1030700079001223AB790180A21239B6E0F521A3C1
:10308000E0F5222274F7122A0974FE12293E122B4F
:10309000B0900620E0FC1235038E848F850592A344
:1030A000A3E0FD7003023247EE242612325A059245
:1030B000E0FAA3E0FB8E828F83A3A882A983EE248B
:1030C0002C1232646A7003A3E06B701E74026D7080
:1030D000030231EC74016D700302316574096D6097
:1030E00034742288828983F0801DED122C6E0007D3
:1030F00001653102EC310747320822310915310AE6
:1031000007310B263247327B02ECFA79001223ABEF
:103110007901023249906008E0A2E650030232478A
:1031200080E5EE2433F584EF3400F58505928017B1
:10313000858284858385A3A3A3E0640370030232A0
:1031400047858284858385E0F582A3E0F583E58267
:103150007002E58370DA888289830592E0641370D7
:10316000A674168082EE244F12325A1234ED74FF88
:1031700028FC74FF39FDEC6A7002ED6B701CEE24C4
:10318000471232A490066AE4F0A3F090066CF0A314
:10319000F0900671F0A3F0023247E86A7002E96B22
:1031A00060030232477521097522007821122BC471
:1031B000EE2446FCEF3400FDEE241312324C1229AB
:1031C0002490064EE0A2E05007EEFAEFFB12203FFB
:1031D000E40592F0EEF8EFF97AE07B00122883E83C
:1031E0009406FA7B0879001223AB805B74012AF8FD
:1031F000E43BF9EE2456123264687003A3E0697070
:10320000467521057522007821122BC4EE2451FC4D
:10321000EF3400FDEE241C12324C122924EEFAEF9A
:10322000FB1220E7801DEEFAEFFB121AB7EEF8EF63
:10323000F97AE07B00122883E89406FA7B0779008C
:103240001223ABE40592F07900023749FAEF34001B
:10325000FB122501740222EE2430F582EF1239B6FA
:1032600022EE2426F582EF1232C52274F8122A09C2
:103270001234F7123084E97026122F8AE970201276
:1032800032612401F0A3E03400F0906008E0C0E077
:10329000123257D0E0F0EE24161232A4123A217FF7
:1032A00001022AB01239B31234F1E8C333F8E9331A
:1032B000F9EE242E1232C21232BB2228F0A3E039DA
:1032C000F022F582EF3400F583E02274F7122A0928
:1032D00074FE12293E122BB0059290066FEA241656
:1032E000F582EB12325D059212307CE521C333F595
:1032F00021E52233F522900650123CD98521F0A415
:10330000C8ACF08522F0A42CFC8521F0E9A42CF9AE
:103310000592E028FCA3E039FDEA242EF8EB340006
:10332000F988828983858284858385ECF0A3EDF01A
:1033300090066A12336EECC398F8ED1234D9858288
:1033400084858385E8F0A3E9F090066C12336E7AE9
:10335000207B4E122883882189220592E09521F056
:10336000A3E09522F0853182853283023752E0F561
:1033700021A3E0F522900650E0F8A3E0F9E88521CA
:10338000F0A4C8AAF08522F0A42AFA8521F0E9A4C5
:103390002AF92274F7122A0974FE12293E122BB060
:1033A0001234F7EE242EF521EF3400F522906062FE
:1033B000E060107910122363852182852283EAF070
:1033C000A3EBF0123084E960030234D6122F8AE9AD
:1033D00060030234D6906008E0C0E0123257D0E0BB
:1033E000F08E828F83A3A3A3A3A3A3A3A3A3858209
:1033F000848583859061D5E0FA9061D7E06A858401
:10340000828585836005E044408003E054BFF0A3DB
:10341000E0F090066CE024C0FAA3E03437FB906043
:1034200062E06005123D928003123D7CEE2423127F
:10343000326490066EF0EE2418123CD67001E960FA
:10344000468E828F83A3A3E0703DEE242A1232645D
:103450007002A3E07031EE24331232647002A3E0F4
:10346000702574012808E439F99006501234E48577
:1034700021828522831234ED90066F1234E4EEFA35
:10348000EFFB1232CB80439006507401F0A3E4F0BE
:10349000EE2416123CD6C333F8E933F98521828530
:1034A0002283E01232BB8521828522830592900619
:1034B0006AE0F8A3E0F90592E0C398F8A3E01234BB
:1034C000D98521828522831234E41234EA123261D2
:1034D0001232BB123A2102336599F974FF2818742D
:1034E000FF39F922E8F0A3E9F0229006501234F1F6
:1034F00022E0F8A3E0F9221234FB22900620E01229
:1035000035032275F0E0A42440FEE5F03405FF22E7
:10351000C082C0835392FE900620E064FD700A8052
:1035200010900620E0F91220DB9061C5E0A2E34094
:10353000F0023A3674F5122A09900620E0A2E7401C
:103540003FFA900628E06A6037906054E0F521EA7F
:1035500075F0E0A42440F8E5F03405F9E8FEE9FF51
:103560008014EE2433FAEF3400FB122015EA7001C8
:10357000EB60031221B3AA2174FF2AF521EA70E25D
:1035800002366975BF0032C0E0C0D075D008C09265
:10359000C082C083C0F08534C6E591FE759B00F4FF
:1035A000F591EEA2E05003123510EEA2E5500312A1
:1035B0003534EEA2E640030236475392FE90606136
:1035C000E0F9900620E0FA122BF2FD01DC35D73548
:1035D000D235122E628068122F0A8063906060E0FC
:1035E0006480603AE0C0E0EA75F0E0A4244BF58224
:1035F000E5F03405F583D0E0F0906060E0C0E09045
:103600000620E075F0E0A42464F582E5F03405F5C9
:1036100083E02429F582E43406F583D0E0F09006B7
:103620004EE0A2E050051233938014900620E0FA99
:10363000900628E06A7005122039800312326B125E
:103640002E091220278004A2E75003123A3BD0F043
:10365000D083D082D092D0D0D0E0328531828532F2
:1036600083122BB874021229247F04022AB074F743
:10367000122A0974FE12293E122BB0900620E07522
:10368000F0E0A42440FCE5F03405FD1234EAEC241B
:1036900023FAED3400FB8A848B85EC2421F582ED3E
:1036A00012325D7401687001E97012E0FA0592E06F
:1036B0002AFAC39425402774DB2AFA8021E0F521F9
:1036C000E88521F0A4F8AAF08521F0E9A42AF905FB
:1036D00092E028F8E439F97A257B00122883EAF091
:1036E00074075AF87401B800028004C333D8FCC0D0
:1036F000E0EA131313541FF8EC28F8ED3400F974C2
:103700001C28F582E439F583D0E0FB0592E05B707C
:103710002B8005E0CAC39AFAEC24DFF582ED123261
:1037200067FBEAC39B50EC8A21EC2521F8ED3400BD
:10373000F974BA28F582E439F583E0FAEC2424F52B
:1037400082ED12325DEA0233648531828532835321
:1037500092FE122BB874021229247F02022AB0743E
:10376000F5122A0974FE12293E122BB09004F2E0E1
:10377000541C1313543F906001F09014657821128B
:1037800028069061957821122815122153740F9004
:103790006002F09004F2E0F89004F9E0FF74016F29
:1037A0007046E85420C4135407F97AFA7B041220B7
:1037B0005D9004F2E0F8540260087A5A7B067E407D
:1037C00080067A547B067E00E854206005752180CF
:1037D00080037521007523067823122BC87CFA7D9F
:1037E00004E5214E4401805FE85402FE60087A5AE5
:1037F0007B06784080067A547B0678000592900517
:103800001F122BE37C007D05EF2469F582E434145C
:10381000F5830592E048F91220637401122924EF20
:10382000600574026F7029EE60087A5A7B06784052
:1038300080067A547B067800059290053F122BE3B0
:103840007C207D05E84404F91220637401122924C8
:103850009004F2E05402C313F912205775910074DA
:10386000C0906182F002365B74F5122A099004E779
:103870001234ED74CF58FAE8C4540FF8740128F5E7
:1038800021752200740478211228FB743055214AD6
:103890009004E71234E59004E7E054306430700798
:1038A000E054CFF0A3E0F09004E7E05430C42425C6
:1038B000906000F090146578211228069061957848
:1038C000211228159004E7E033335401F9122057F0
:1038D0001221599004E7E05402C31390600CF09059
:1038E00004E7E05402603675D90DE0548060047836
:1038F0004080027800E84403F5D9E0548060067AFD
:103900005A7B0680047A547B06790612202D7406B1
:1039100075D9001470FAE5E170FC75E195759100B8
:1039200074C0906182F002366974F5122A0974FE3F
:1039300012293E122BB01239A412280690619578F4
:10394000211228151239D3F8EF3400F988848985BB
:103950008584828585831239BB8E828F83A3A3A33E
:10396000A3A3A3A3A3A3E0544060170592E0F582AC
:10397000A3E0F5830592A3A3E02402FA9061D5E0C9
:103980002AF002365B74F5122A091239A4122806AD
:1039900090619578211228151239D312325A1239B2
:1039A000BB0236691234FB122159EE240C1239B3D2
:1039B000782122F582EF3400F583221234F1EE24CF
:1039C000311239B3E8F0A3E9F07900EEFAEFFB1217
:1039D000214D227402906003F0EE24301232C29026
:1039E0006008F0EE24101232C2906005F0EE24114F
:1039F0001232C2906006F0EE24121232C2906007BA
:103A0000F07480906060F012366EEE24241232C2A0
:103A1000906000F075910074C0906182F0EE2433E4
:103A200022C082C0835392FE900620E0900626F0CA
:103A300074FF900620F0D083D0822274F3122A09FA
:103A400074FE12293E122BB079001223638A238B55
:103A50002474FF900620F0900626E0FA74FF6A6056
:103A600066EA900620F075F0E0A424E7F8E5F0346B
:103A700004F9E82487F582E912307990064EE0A235
:103A8000E0E850362462F582E91232675420600B78
:103A900074042521FEE43522FF807FE8246CF58242
:103AA000E9123267C333F8E433F9E82521F8E93540
:103AB00022F9740128FEE43980DE246FF582E912D0
:103AC000325D123CDE80F0900628E0FA74FF6A60F6
:103AD00051EA75F0E0A42442F582E5F03405F5835F
:103AE000E06408700E7B0279001223AB74FF90062D
:103AF000288026123CC69402123C9A50099004EE8B
:103B0000E523F0A3EBF0123CA3E02521FEA3E03572
:103B100022FF900628E0900620F0900620E064FF47
:103B2000707E9004E7E0A2E05023123CC6123C985D
:103B3000500F74032523F8E43524F99004EE123471
:103B4000E4123CA3123CDE39FF74FE804F9004F275
:103B5000E0A2E0504574FD900620F09004F7123C7E
:103B6000D9C39523FAE99524FBC3EA9401EB123CEF
:103B70009B50088523218524228004882189229056
:103B800004F9E06401700BE42521FE74083522FF7E
:103B9000800E74642521FEE480F374FC900620F00E
:103BA000AA21AB227930122375EEFAEFFB7940128D
:103BB00023757954122381900620E0FA122BF2FC2F
:103BC00002E73BC93BDD3BE23B123CB1E594A2E29C
:103BD00050037594007977122381023C8212375F7B
:103BE00080481238688043900628E06A601BEA75B6
:103BF000F0E0A42440F582E5F03405F583E0059279
:103C0000900626F074FF0592F090064EE0A2E05078
:103C1000051239298014900628E0FA900620E06AFF
:103C2000700512215F8003123985E521C39523F8C1
:103C3000E5229524F9C3E8123C98500C122171E555
:103C4000E170FC75E121803A9003EFE0A2E0402FA3
:103C5000AA21AB2212236F8A218B228C238D2490E0
:103C600006667821122815123CB1E5E170FCE59456
:103C7000A2E25003759402E594A2E240FA80031296
:103C80002171122243853182853283122BB874024E
:103C90001229247F06022AB09403E99400A2D26577
:103CA000D033229004EEE0F521A3E0F5229004EA5F
:103CB00022E5A8FAC2AF9009A5E0C2E0F075330092
:103CC000EAA2E792AF229004EEE0C39523F8A3E0C6
:103CD0009524F9C3E8221239B31234F1E822E02521
:103CE00021F8A3E03522F974FE28FE74FF220000BB
:103CF000853387C2AF22C0E0C0D075D010C092C05B
:103D000021C022C023C024C082C083C0F074FC1232
:103D1000290E5392FE9009A6E060171220519003DD
:103D2000EFE05411700375C687E49009A6F0C2C78E
:103D30008030C2C7853182853283AA82AB8312214B
:103D40006BE96401701C74019009A6F085318285CD
:103D500032837821122806AA21AB22AC23AD24128B
:103D600022377404122924D0F0D083D082D024D0FA
:103D700023D022D021D092D0D0D0E03275C30074AD
:103D800020C39AFA744E9BFBEAF5A2EBF5A353927B
:103D9000FE22C02175C301E5A2F521E5A375C3008C
:103DA000F9A821742028F8744E39F9E8C39AF8E983
:103DB0009BF9E8F5A2E9F5A3D0215392FE22C0E0D9
:103DC000C0D075D018C092C021C022C082C083C0AC
:103DD000F05392FE900A5A123ECF900A5BE06E605A
:103DE0002A900A17E0700C7401F07B007A007904C5
:103DF0001223ABEE900A5AF0E5C1C0E0E521245C45
:103E0000F582E4340AF583D0E0800BE5C4A2E650E5
:103E1000067401900A16F0804BC0E0C0D075D0182F
:103E2000C092C021C022C082C083C2E95392FE90DA
:103E30000A19E0FB900A18E06B6019EB241AF5826E
:103E4000E4340AF583E0FA74012B543F900A19F028
:103E50008AC1800EE5A8FAC2AF9009A5E0C2E312BC
:103E60003F268002D0F0D083D082D022D021D092C1
:103E7000D0D0D0E032C0E0C0D075D018C092C02100
:103E8000C022C082C083C0F05392FE900AE0123E6E
:103E9000CF900AE1E06E6029900A9DE0700B7401FA
:103EA000F07B00FA79041223ABEE900AE0F0E5F91A
:103EB000C0E0E52124E2F582E4340AF583D0E08015
:103EC0000BE5FBA2E650067401900A9CF08095E099
:103ED000F52174012521543FFE22C0E0C0D075D0E9
:103EE00018C092C021C022C082C083C2EA5392FE91
:103EF000900A9FE0FB900A9EE06B6019EB24A0F50E
:103F000082E4340AF583E0FA74012B543F900A9F4F
:103F1000F08AF9800EE5A8FAC2AF9009A5E0C2E4E4
:103F2000123F26023E66F0753300EAA2E792AF2206
:103F3000C0E074F0122AEE906206E0F8900B36E0D2
:103F400048F0A3E0F0906202E0F8743F58F5217564
:103F50002200740478211228FB900B36E04521F0F2
:103F6000A3E04522F0906204E0F8743E58F5217514
:103F70002200740978211228FB900B36E0F0A3E0B0
:103F80004522F0900B36E05404600AE054FBF0A3A5
:103F9000E0F0122429900B36E07002A3E060097B68
:103FA000017A0079011223AB758B00C2E87F02020F
:103FB0002B55033F0000030004280D98089007903C
:103FC0000194011B0195111B08F00939821F0EA4F1
:103FD000FECD82210622FB381818162118F0EF3882
:103FE00018F2ED3828F2EB3868F003392A1FE73F62
:103FF00008F00428BA3868F0393C08F1053C88F12B
:10400000173CA8F10E3CE09F2C1F0128104A291FE5
:10401000D63F15D0033827D00938009004289F3F99
:104020000128154101980128014A25D01F38041F95
:10403000831F0EA4FECD042205381421202807A0DA
:10404000083F0628681527D0E939202807D0F2381C
:10405000832178F10238042188F1083D0628A14027
:1040600001F004288438042807A005284D1528F1FC
:10407000163C68F1143D77CF1240599202D80F399F
:1040800012D00739699222D00439799242D004388B
:104090000528EF151E3FC09F04286C3F08F1233C04
:1040A00088F1203D094028F1103D4540F7C759F2FD
:1040B000083D9303131183E1B9F00F3C23E00D3F5A
:1040C00009D8EA38F9C30B3F68F1033D59F2F23CD5
:1040D00009D8F9390528BD150528F01501900128E2
:1040E000214A051F48F00C3C08F10A3868F1033CEE
:1040F00098F106390C960528F9150228843F47A047
:104100000C960528F315531F0528E31507288CED99
:104110000528EC1501280195711B01280CE40528E0
:10412000E515511F88F10B3808F1073868F1093996
:104130000128214201F00B3947D009383521063FCB
:1041400028F1033838F10339351F341F04280CE0F7
:1041500047D0033903280CE80528C815571F28F055
:104160000638561F811F021F38F0063930215B9038
:1041700005283B15FD3F88F1033D0428F715052868
:10418000811547D0133808F10F392C470CF00C3843
:10419000C403B4125C110C3E04F00A38C103802839
:1041A00001A0411B063F3021043F07284CED4C1B6A
:1041B0005B9047D0173827D00328E8390EA4FECDEE
:1041C00002220D39002208381021002914E00328AA
:1041D000DD3C4C1BF13F05289E15EE3F4618122191
:1041E000033F0528021588F13039052811150128EB
:1041F000FB41302100291BE00A3D0428F615052863
:104200000715F6C35192166A3B906B080428ED150A
:104210000428FE150BF0FB3917D004382D1F012898
:10422000C43F0328214701F008390328314701F032
:104230000439A2958090033FC29500920328B615D9
:10424000201B54900128B33F08F105390521119036
:104250000128214A38F103390021023F3021102181
:104260006A030428C2156B033141224128F1093D3C
:1042700002F00239F29101F00B39FF28F191083F69
:1042800002F00239529201F00339FF28F193F7CB83
:104290001B06023907A4B20C073D47D003286E382D
:1042A00024900328753F1690B6080428B115A6037C
:1042B0000428AE153BE0F7CE28F1703C012807A09A
:1042C000F090A00668F1323D149030F0053938F1D5
:1042D00003285E38073F50F003285A3958F1032865
:1042E000573838F104380328AB15033F03288915E4
:1042F00003287515012807D0033907A1563F42410D
:1043000030F00C3907A112D0033807D84E3887A0F7
:10431000C14041D04A38F7CE483F38F1033822D067
:10432000443807D8423907A1403F78F1123847D0C6
:104330002D3800F0033860F00639C14011D007383D
:1043400087A0113F10F0033820F0AB3977CF0B3F37
:1043500000F0033810F0A539414181D00439032819
:104360005015093F03286C1568F10539414141D0CA
:10437000023907B810F0063903283115012807D093
:10438000033807D8123907A1103F40F00228FC3942
:104390000328141507D8F838083FA10383403112C9
:1043A000310511D0023907A14BF0063C04281D1538
:1043B00004282E15FA3F042818151BF0FD3D38F18E
:1043C00003380328A115F7CD0328214701F005394B
:1043D0000328314701F0033807A2F7CE224082D0EC
:1043E0000A38060304281415069376062611960447
:1043F00004280E1571034112002871C021070438EA
:10440000E7CF4198043F17D0043951980728214835
:1044100017D00538F295202800901D3F07D20438A8
:10442000C2950092183F07D10438D2950094133FEB
:1044300007D40438E29500980E3F809028F10A3D99
:104440003190A10631F0063903A4B2950228AA15CD
:1044500000A1A2950228A615201B28F1633D08F1B2
:104460000A39012807D00739072851411128C14AC4
:10447000012807A017D20539E3CF8AD0023813A04C
:1044800007D20539B3CF4AD0023843A083D01E39B2
:1044900031031112310521D00739319907282148FC
:1044A000002915E0133F529502287C15454003D1A1
:1044B0000D39429502287615281F21990728214891
:1044C00003D20438629502286D1573CF834808F132
:1044D000093977CF17D0063907D203390AD1023804
:1044E00087A0349007D2073807D803383090543F5C
:1044F00007A8023FF7C718F15A3927D04C39314085
:1045000011D0493987D0073917D0453907D2033937
:104510000AD1413805F04B39414001F048385090FC
:104520003B3F68F1153878F13938149017D03D3990
:1045300007D23D3987D003383490393F07D1373916
:1045400011900128214A409003286E15253F47D03D
:104550001C38249007D30C3911900128214A87D0A8
:1045600008385144002911E0043A514C023877CF01
:1045700017D01B3987D003383490193F07D3173928
:10458000C14021D01438073F17D00F3907D3033863
:104590003090023F009044900A3F249017D0053994
:1045A00007D305393490033FA09F44900221C19066
:1045B000511B8121342124F0083927D004390C9C67
:1045C000FD2BAE3F10904490B7CF34F00E395321FD
:1045D0000328E195711B541F0F28CC950628214113
:1045E000F1C081111C09143F0190511B0728F19F54
:1045F000711B802114F00128863854F0FD2B0A38F5
:104600000128AD3F541F032864151028CCED032862
:104610006D1576217821501F0128A29A217001B2D0
:10462000218001B221802CE3032860157421012828
:10463000ACE408F1073C88F1033D022897150328F4
:104640002115011F0128349D03285015201F00212A
:1046500068F0093D069058F00339072836410228D2
:104660009315FA3F0728504078F10439331F321F61
:104670000421500000DC01287C3828F1103D8340E3
:10468000F7CB31031112310521D0033903D103399E
:1046900000D8103807A41B901A90163F00D80128A4
:1046A000683998F107394B700128E2412B0800283E
:1046B0008E3F102807A04B701BF0FC2BED3C4A707E
:1046C000224128F1303D02F00239F29112E0B20CA1
:1046D000FC2BE23C419031061111FF2BE29F32048A
:1046E000520022111A042A043240002862C018F134
:1046F000033927D00D3922F0093907280141B109C2
:10470000002921E0093A0AA1073F42F00339FACE15
:10471000033F62F0F93818F1253977CF0AD12238F2
:1047200087A0203F02F00239529212E0B20CFC2B1B
:10473000B33C68F1123D38F1153887D013390128A0
:10474000314201F00F38402807A00728914231C0BC
:10475000C1A00728914A063F022801907106211244
:104760001A04FF2BF29FB2084BE0A60302280C1597
:1047700026030228091568F1293CFBF0273C6290CA
:10478000467002280115D237042860966290467060
:10479000062D0128F915C23778F11839D04000D814
:1047A0001538DBF0133C829046700128ED15D237A6
:1047B000764400D40338060E023F060D41700128EE
:1047C000E315417086120128DF153290B20C053DC9
:1047D00046700128D915FB3F08F1063941721128AE
:1047E000C14A012807A0EF28F7CF28F11E3D8340DA
:1047F0003090A00631031112310521D00339829582
:10480000043F30F0043972950028CC1553C843D0CA
:10481000023823A007D4023803A130F0023903A2E2
:10482000834892950028BE1506900BF005380128A4
:10483000AB15591FFB3F0EA4FECD012204390228FF
:104840006A15FA3F551F1121031F249008F10F39F3
:104850000AD1033987D02438314011D0213905F0ED
:104860002139414001F01E3850901B3F48F1073874
:1048700028F1033858F1063987D0143877CF1490CF
:10488000113F78F1053911900128214A093F98F12B
:104890000939829500288A15281F5490033F0090FB
:1048A00044900EA4FECD0322043902283415FA3FA9
:1048B00013212C1801210321741FF1900000F137FE
:1048C0000190511B0728F19F711B8021322107287D
:1048D000914231C00728914ABF28F7CF28F1063C02
:1048E00088F1043D92955E15281F44F0383814F085
:1048F0000A3854F0FB2B8E3801280CE40128F615F9
:10490000FC2B023F01289015009027D0283902D8AF
:10491000083838F12439329001289215E237193FCE
:1049200019E089F2043C38F11A39599238F1033907
:104930000128861512409103002951E2120E12D06F
:10494000F038012886150128B91512400128911563
:104950003199072821482C18FE2B553F0128104A71
:104960000028A915FB2B2B3FF09F043FD09F023F4F
:10497000B09F0028D0152C1FF23F28F1053C68F1AC
:10498000033D1490053F2090023F109044904198C1
:104990000728214838F1FE2B0A380028B515FE2BD0
:1049A000063F217011E021800200012821410728E3
:1049B0002148217811E021880200F7C7761571039C
:1049C0003112A10501D4023907A8042864963115D3
:1049D0000238F7C70428C4F6FB3C0200FE28F7CFD4
:1049E000641551417111A10501D80339012807A0AF
:1049F00064911F150338FE28F7CFC4F1FB3C020079
:104A0000F7C753155141022807A00AD40339FD28DE
:104A1000F7CF5111A10501D4023907A8C491042888
:104A2000659607150238F7C7563124F2FB3C0200A1
:104A30000028DB150028EC15412D160C0200F7C7E5
:104A40003415D032D332234268F1093941419040C4
:104A500041D0043850000306023F030331420228CC
:104A600007A00AD404395100FD28F7CF1306449259
:104A7000042865960028B9150028CA155631FF2864
:104A8000E19F4070060C023813068EA0810064E09E
:104A900044F5F83C0029F4E2A4F2ED3C03F00238BE
:104AA00007A8D32FD02F02009BF0023C020007A1E1
:104AB0002DE0020098F10938102807D0033908F1D9
:104AC000043831990728214808F10C39012807D00A
:104AD0000938072851411128C042010C0338072822
:104AE00050491190082807D005380628B148F72802
:104AF000F7CF042807D005380628A148FB28F7CFB0
:104B00003021291F0200311FFF28F19F411B301F58
:104B100031210200022101210321532309380628F3
:104B2000D14001D112384198072821480B3F542326
:104B30000C385021F1910000F137741FF190000002
:104B4000F13768F0023C2B1F0190511B812107288F
:104B5000F19F711B80210728914231C00728914A9B
:104B6000BF28F7CF322134210200082807D00739A7
:104B70000628B14001F00438082807A002000428E4
:104B80000D98FE2BF43F402807D00D390EA4FECD22
:104B9000012204390028BF15FA3F661B11210029A4
:104BA0001BE002000728A64A0EA4FECD012204390C
:104BB0000028B115FA3F01283142B10941E0053A18
:104BC00008384BF00C38EA3D0728A142611BE73F4B
:104BD0000728914271CF0728914AF73F0728914251
:104BE00081A20728914ADA3F0EA4FECD02220439A1
:104BF00000289115FA3F4618122100291BE01BF0EE
:104C00000639581F0628E0400128004A020017D044
:104C10000A393122063817A0419807282148033F56
:104C20000728A6480200124038F1093802D807398F
:104C30009103002941E2120E120D1248020047A012
:104C40007B280C9C10215215FF2B5E15B7CF02005C
:104C500059F203396391083F69F20339E392043F43
:104C600079F203394396020004280D98FA2B143F79
:104C700002D407389103002901E211700628614827
:104C8000020088F10A3C012831410728814AB146D7
:104C90000328314FA1460F3F0728894A28F1063DD6
:104CA00031440328314F5140053F55285195032881
:104CB000314F81110328214F0200E3F3033CF190AF
:104CC000033F23E051920628614A06284348020028
:104CD0007B21772141900000F137702175217A21E5
:104CE0008CEE0415521F801F02004C1B001F47D082
:104CF000033827D009390EA4FECD002203390B1545
:104D0000F73F1021020004280D9838F1FE2B2738B8
:104D1000FE2B3C3FD23202180119210601D41A3869
:104D20001218162162F003392A1F2D3F12F215388E
:104D300022F22838FE2BEF1568F0063C619001281E
:104D4000114AFE2BB8153021280304280D98F92BA1
:104D5000373F01D114381421202807D00D3878F1BD
:104D6000123904231038714401F0023981440029BA
:104D700011E0714C083F202807A0053F01D20538FB
:104D8000152127A0D22F020011D0063810210428A7
:104D90000D98FD2BF33FF2CE5200121BF43F74F638
:104DA0001229A075210C7522007821122BC47C00D9
:104DB0007D007A547B60122507024EB4C082C08306
:104DC0008A828B8380075392FEE0F5D9A3E919709C
:104DD000F502752EC082C0838A828B838007E5D955
:104DE0005392FEF0A3E91970F502752E74F712299B
:104DF000A0E970051220E180109004EC12661D906D
:104E000004EEE028F0A3E039F0025F1F74F61229E7
:104E1000A0EA2422F582EB126685C333F8E433F965
:104E2000E82455F582E93414F583E024FAF521A34A
:104E3000E03400F522EA2416F582EB124EA085211B
:104E4000F0A4C8AAF08522F0A42AFA8521F0E9A4EA
:104E50002AF9741F28F8740339F97A207B03122881
:104E60008388218922AC21AD227A717B02122883AA
:104E70008A218B22740578211228FB90066CE5218B
:104E8000F0A3E522F0ECF8EDF97A717B02122883A9
:104E900090066A127430900671ECF0A3ED02667E03
:104EA00012668D12661DE822853182853283539207
:104EB000FE122BB874021229247F02022A6C74F0AD
:104EC0001229A0901426782512280690618FE0C040
:104ED000E0852521852622EA2521F582EB3522F57C
:104EE00083D0E0F090149C78251227689014A07865
:104EF000211228067821792512254C40CE7A000A05
:104F0000EAC3942040F97F08022A6C74F61229A0A3
:104F100074FE12293E122BB08A848B85E9701C75B1
:104F200021087522007821122BC47C007D001275A7
:104F3000B612292474010592F080270592E0A2E0C0
:104F4000E492E0F075210775220005927821122B7A
:104F5000C47C007D000592A3AA84AB851275B612AD
:104F60002924024EA8C082C0835392FE9009A5E076
:104F7000A2E040151221711270E0E59EA2E640FA0F
:104F8000E594A2E2400375940302694E74F6122977
:104F9000A0E9FE60067C5A7D0680047C547D06757F
:104FA00021067522007821122BC47A167B601258D4
:104FB000C7122924906015E0C2E0F0EE6004780189
:104FC0008002780002667C74F61229A0E9FE752141
:104FD000067522007821122BC4EAFCEBFD7A1C7BBB
:104FE000601258C7122924906015E0C2E1F0EE600B
:104FF0000478028002780002667C74F71229A0749B
:10500000FE12293E122BB0E9FE8C848D85740B12A2
:105010002977E0FF74072FF5D98ED9790612202D54
:105020008007439201E0F5D9A3EF1F70F5E5E17029
:10503000FC75E195025F0E74F61229A0E9FF900657
:1050400020E064FC6004793A8053906022E0FC74B4
:10505000FF6C7004790780457E0080040EC313FC4A
:10506000ECA2E040F77521067522007821122BC4CE
:10507000EAFCEBFDEE1258BB122924752101EE78F3
:10508000211228FBAE21EEF4FA906023E05AF0EFF3
:105090006003E04EF0906022E04EF07900024EB9DD
:1050A00074F21229A074FE12293E122BB0E9FF8A75
:1050B000848B85900620E064FC6004793A806C90D3
:1050C0006022E0F521906023E0F5227523017E0047
:1050D000E52355216046852382A882EF6004E8FA23
:1050E00080027A00852225E85525F8EA687001E4F7
:1050F000702A7525067526007825122BC4AC84AD60
:1051000085EE1263B6122924EA7001EB700EE523D6
:10511000F4FA906022E05AF07900800F0EE523C384
:1051200033F523EEC3940840A77912853182853286
:1051300083122BB874021229247F06022A6CC082C3
:10514000C083E45392FE90602202694D74EC1229F0
:10515000A074FE12293E122BB08A258B2689288C3A
:105160002B8D2C7416122977E0F5277417122977E6
:10517000E0FEA3E0FF7419122977E0F521A3E0F522
:1051800022741B122977E0F523A3E0F52490064E44
:10519000E0A2E05005790C02538D900628E064FFF0
:1051A00070F312217DE9FA852B82852C83F074FF40
:1051B0006A7005790902538DEA12682EE52570029E
:1051C000E5266053752906752A007829122BC4AC90
:1051D00025AD26E5842403FAE585126F0312292400
:1051E000E52860047C0180027C00858482858583BB
:1051F000A3A3A3A3A3A3A3A3A3A882A983E054FE6C
:10520000FAA3E0FB74015C4A88828983126CB9902E
:105210006014E0C2E38006906014E0D2E3F0E5277A
:1052200060047A0180027A00900652E054FEF8A3EE
:10523000E0F974015A48900652127431E58424232F
:10524000F582E58512643BE584240CFAE58534009B
:10525000FB1220457A0090618FE0C0E08A25E5844A
:105260002525F8E5853400F9741028F582E439F530
:1052700083D0E0F00AEAC3940340DB900650740147
:10528000F0A3E4F0E5842416F8E5851260EAEEF078
:10529000A3EFF0E584241AF582E5851265F0E52197
:1052A000F0A3E522F088828983126941EA75F0054E
:1052B000A4FAACF075F005EBA42CFBE5842428F5EA
:1052C00082E5851265F0126CB8E5842418F582E554
:1052D000851265F0E523F0A3E524F0E5842422F5AA
:1052E00082E5851265F07401F0E5842413F582E50A
:1052F000851265F07402F088828983E0F8A3E0C328
:1053000013F9E813F8E5842414F582E58512742D69
:10531000900678E0C0E0E58424DFF582E58512653B
:10532000F0D0E0F07521057522007821122BC47CA5
:10533000737D06E584241CFAE585126F0312292487
:10534000AA84AB851220E790618FE054072405C042
:10535000E0E5842421F582E5851265F0D0E012565F
:105360001CA2E040057900126CB2E5A8FAC2AF9029
:105370000628E00592F0852B82852C830592E0902B
:105380000628F0EAA2E792AF122147790085318220
:10539000853283122BB874021229247F0C022A6CE6
:1053A00074F41229A0E9FE740C122977E0F5237435
:1053B0000D122977E0FF740E122977E0F524EC70C6
:1053C00001ED6016EA7001EB6010EA2CF8EB3DC3CA
:1053D00013F9E8139004F4127431EE60249004F28F
:1053E000E054E3FAA3E0FB8E2175220074027821D9
:1053F0001228FB741C55214AF8EBF99004F2127440
:1054000030E5239004F9F09004F2E054FDFAA3E0B3
:10541000FBE524A2E0E492E0C3334AF8EBF9900400
:10542000F212561254FCF074035FFAE04AF0027272
:10543000AB74F61229A0E96005752101800375217E
:10544000007522009004F2E054DFFCA3E0FD740537
:1054500078211228FB742055214CF8EDF99004F2C4
:105460001274307521067522007821122BC4EAFCD3
:10547000EBFD7AFA7B041258C71229247900024EF8
:10548000B974F71229A074FF12290EE9FE9004F2F4
:10549000E0F8EE7050E8A2E0400779007401025F86
:1054A0001CA2AFE492E0FFC2AF900620E064FD7062
:1054B00007E5E170FC75E10112588A9004F6E0F905
:1054C00074FF69600912217774FF9004F6F0EFA26F
:1054D000E092AF12214790064E12588D1256226468
:1054E000FD70B780F7E8A2E05004793A80AE9004EE
:1054F000F9E06403604890064EE0A2E05004790CA5
:10550000809A12217DE9FA9004F6F074FF6A700423
:105510007909808890064EE04401125E119006528F
:10552000E054FEFAA3E0FB9004F2E0C313F8740128
:10553000584AF8EBF9900652E8F0A3E9800574FFA9
:105540009004F6F079001223639004F7126CB8907F
:1055500004F212562A02549A74F51229A074FF120A
:10556000290EE9FEEAFF8B23EE7031A2AFE492E050
:10557000FAC2AF900620E064FE7007E5E170FC75AA
:10558000E1019004E712588DEAA2E092AF122147A0
:1055900012562264FE60F97900025FF29004E7E09F
:1055A000A2E040F3900620E064FC6004793A80E9D0
:1055B0009004E7E054CF125E11E490600912561C8B
:1055C00054BFFAA3E0FBE523A2E0E492E0F52175E5
:1055D0002200740678211228FB744055214AF8EB0A
:1055E000F99004E7125612C2E2F0EF6004E0D2E252
:1055F000F0E49004E912561C54F3125E1190600A14
:105600007401F0A3E4F0F9126CB29004E712562A88
:105610008085E8F0A3E9F0906014E022F09004E7C0
:10562000E022900620125E01E022E04401F0A3E0B7
:10563000F012214722C082C083E9C394F5A2D2654B
:10564000D033500479F5800DE9C39405A2D265D01A
:105650003340027904740B29C454F0C0E05392FE25
:10566000906186E0540FFAD0E04A02694D74F61258
:1056700029A0E9FFE5A8FEC2AF8F2175220078219D
:10568000122BC4EAFCEBFD7A007B051258C71229E5
:1056900024EF90051FF0EEA2E792AF024EB974F628
:1056A0001229A0E9FFE5A8FEC2AF8F21752200787C
:1056B00021122BC4EAFCEBFD7A207B051258C7129D
:1056C0002924EF90053F80CD74F61229A074FE12B4
:1056D000293E122BB074C012290E75219275220139
:1056E0007821122BC47C007D007AE77B041275B60A
:1056F0001229247521667522007821122BC47C00A2
:105700007D007A007B601275B61229249004F4E4BF
:10571000F0A37402F09004F2E0441C125E119004B5
:10572000EC744BF0A3E4F09004EA7432F0A3E412BA
:10573000561C54FD125E117521257821122BC47C54
:10574000007D007A297B061275B612292475210482
:105750007821122BC47CFF7D007A737B061275B60C
:10576000122924741F900677F074FF900626F0909B
:105770000628F0E4900627F074FF900540F012230D
:105780007B1221B974019061C6F07440906180F081
:105790007448906191F074079061BCF0743F90611F
:1057A0009AF0745A90619BF0747F9061A0F090031E
:1057B000EFE0A2E7400D79017C017DFF7A867B61F5
:1057C000121D7BE4906022F0906009F043A9014330
:1057D000B901759B00759100439A01C2A89061813F
:1057E000F07480906182F0E4906183F079408531BB
:1057F00082853283AC82AD837A03FB1221FBE9FB05
:1058000074FF6B60337A00802A8A21853182853269
:1058100083E5822521F584E583127285A3E0C0E04B
:105820000592E02480F582E43461F583D0E00592AE
:10583000F00A0AEAC39B40D1122E48122027900694
:1058400060E4F0A3F0122153740F906002F074FC36
:10585000900620F090065212588D9004E7E0547F95
:10586000125E119004F2E054FD125E1179067CEA9A
:105870007DFF7A547B06121D7B121F9D74401229F6
:1058800024853182853283024EB19004F2E054FEC9
:10589000F0A3E0F02274F61229A0E5A8FEC2AF75CD
:1058A00021067522007821122BC4EAFCEBFD7A5AFE
:1058B0007B061258C712292402569675F006A424B6
:1058C00024FAE5F03460FB122501740222C082C084
:1058D00083E975F0E0A424E7FCE5F03404FDEC2452
:1058E0005AF582ED1265F0EA5392FEF0EC245BF576
:1058F00082ED1265F0740A02694D74E81229A074F1
:10590000FE12293E122BB074FF12290E8A258B2617
:10591000EA2434F582EB125EC1F521E5F03405F599
:10592000228A828B83A3A3A3A3125E01E521243ED6
:10593000F527E5223400F528852182852283A38579
:10594000822F858330E521246AF52DE5223400F588
:105950002EE5212426F584E5221265E6E52124764C
:10596000F52BE5223400F52CE521246EF529E522FE
:105970003400F52A852182852283A3A3858223858D
:105980008324852182852283A3A3A3A3A3A3A3A306
:10599000A3AE82AF838A828B83A3A3A3A3A3AC828B
:1059A000AD83853182853283E0122BF2000DC55D17
:1059B000165BC05AB15A355C3A5D9B5DA05D395AA1
:1059C0007C5A2E5A795B9E5BCC594A5B75270575CC
:1059D00028007827122BC4E5212439126F001229E0
:1059E00024852382852483E064077002E4F08E829C
:1059F0008F83E04408125E118E828F83E054027020
:105A00000DAC25AD26AA21AB221221658007AA255F
:105A1000AB261221B3A821A9227AE07B00122883A9
:105A2000E89406FA7B0379001223AB025DE9852333
:105A300082852483E06406600AAA25AB261221B37E
:105A4000025DE9125E0AE4852382852483F07523D2
:105A500008F5247823122BC4AA27AB281258C712A2
:105A60002924AA25AB261221B3A821A9227AE07BFA
:105A700000122883E89406FA7B0480AA125E0A7555
:105A800023087524007823122BC4AA27AB281258A8
:105A9000C71229247901AA27AB2812204B78231298
:105AA0002BC87827122BC47909126ED212292480B0
:105AB000B8125E167409852382852483F0025A3950
:105AC000125E312442F582E5F03405F5837402F06C
:105AD0007527077528007827122BC4125E31249190
